:1010000000000420011100009B1F0000C3350000F8
:101010009B1F00009B1F00009B1F000000000000A2
:101020000000000000000000000000009B1F000006
:101030009B1F0000000000009B1F00009B1F000082
:101040009B1F00009B1F00009B1F00009B1F0000B8
:101050009B1F00009B1F00009B1F00009B1F0000A8
:101060009B1F00009B1F00009B1F00009B1F000098
:101070009B1F00009B1F00009B1F00009B1F000088
:101080009B1F00009B1F00009B1F00009B1F000078
:101090009B1F00009B1F00009B1F00009B1F000068
:1010A0009B1F00009B1F00009B1F00009B1F000058
:1010B0009B1F00009B1F00000000000000000000BC
:1010C0009B1F00009B1F00009B1F00009B1F000038
:1010D0009B1F00009B1F00009B1F00009B1F000028
:1010E0009B1F00009B1F00009B1F000000000000D2
:1010F000000000009B1F0000000000009B1F00007C
:1011000080B56F4600F04AFF40F2040040F2000153
:10111000C2F20000C2F20001814210D2002241F866
:10112000042B81420BD241F8042B81423CBF41F891
:10113000042B814203D241F8042B8142EFD340F2C9
:10114000000140F20000C2F20001C2F20000884239
:101150000ED2021D914288BF0A46C143114421F0BC
:1011600003010A1D43F63021C0F2000102F025FA06
:101170004EF68850CEF20000016841F47001016023
:1011800000F006FFFEDE006843F25C620B4643F2AD
:101190006C61C0F20002C0F200010078002808BFB4
:1011A00011464FF00A02184608BF102201F00BBD8D
:1011B000F0B503AF2DE9000F85B000208029009025
:1011C00003D28DF80010012032E002200A4660F3BD
:1011D0009F12B1F5006F07D28DF80120C02242EABC
:1011E00091118DF8001023E0B1F5803F0DD28DF8FC
:1011F00002208A0960F39F12E02040EA11308DF846
:1012000000008DF80120032012E08DF803208A09E8
:1012100060F39F128DF802200A0B60F39F12880C76
:101220001E218DF8012061F3DF008DF800000420FD
:1012300042F2201442F2445B0DF104084FF0000921
:10124000EA46C4F20004C4F2000BCDE90399CDE9EB
:10125000019907E0C4F80090DBF80810701BAA445D
:10126000A94221D10646F8B13546102E28BF1025D7
:10127000404651462A4602F00BF84FF6E86001213D
:10128000CFF6FF70CBF80080CBF8045021502068D7
:101290000028DFD12068002804BF20680028D9D1A9
:1012A00020680028F3D0D5E7002E18BF012630466D
:1012B00005B0BDE8000FF0BD0A4643F2DC61C0F2A4
:1012C000000101F000B970477047D4D40A46017894
:1012D0000239C9B2052928BF0521DFE801F0030B57
:1012E000131B232B43F27861C0F2000110460F223A
:1012F00001F069BC43F28761C0F2000110460C2284
:1013000001F061BC43F29361C0F2000110460C226F
:1013100001F059BC43F29F611046C0F20001112256
:1013200001F051BC43F2B061C0F2000110460F223F
:1013300001F049BC80B56F4682B0019043F2CC60A9
:1013400043F2BF61C0F2000001AB00901046C0F252
:1013500000010A2201F03BFC02B080BDF0B503AFF2
:101360002DE9000F85B042F2201442F2445B0DF1EA
:1013700004084FF000098A46C4F20004C4F2000BCE
:10138000CDE90399CDE9019907E0C4F80090DBF8B5
:101390000800721BAA44A84221D11646FAB135466C
:1013A000102E28BF1025404651462A4601F070FFF6
:1013B0004FF6E8600121CFF6FF70CBF80080CBF844
:1013C0000450215020680028DFD12068002804BF85
:1013D00020680028D9D120680028F3D0D5E7002E56
:1013E00018BF0126304605B0BDE8000FF0BD80B53E
:1013F0006F4600F001F8FEDE80B56F4698B007AC8E
:10140000204600F06BFB9DF81C0002280BD143F234
:10141000F46043F23C72C0F20000C0F200022B21E3
:1014200000F084FEFEDEBDF8240042F22013ADF889
:10143000180047F22030C6F66E10DDE907120A9058
:1014400046F67310C6F26E70CDE90412099046F2AA
:101450006910C6F66C1042F24852089046F6496090
:10146000C7F269404FF6E8660790C4F20003C4F281
:1014700000021020C3F824441060CFF6FF7601204C
:101480009851186840B91868002804BF18680028E7
:1014900002D118680028F4D0002004AD186050680C
:1014A00005F10A010191102829D142F62E60C0F6FB
:1014B0002E20CDF8270046F26750C2F674600990DE
:1014C00047F22040C7F26120089046F26660C7F2FA
:1014D000652007900F20C3F8244410600120985124
:1014E000186840B91868002804BF1868002802D19D
:1014F00018680028F4D00020186050680F2800F009
:1015000000FC48F240194FF6C06B281DAC1C03903C
:10151000A81D4FF00008C4F200094CF25036012516
:10152000CFF6FF7B4FF0000A02900AE0C9F8008076
:10153000039800F097FA0AF1010ABAF1050F00F0DA
:10154000B680204600F078FA4FF6CC60C9F8006407
:10155000CFF6FF7049F8005049F80B50D9F8000059
:1015600058B9D9F80000002804BFD9F800000028B5
:1015700003D1D9F800000028F0D0C9F80080029803
:1015800000F05AFA4FF6CC60C9F80064CFF6FF704D
:1015900049F8005049F80B50D9F8000058B9D9F86B
:1015A0000000002804BFD9F80000002803D1D9F8B2
:1015B00000000028F0D02046C9F8008000F052FA60
:1015C0004FF6CC60C9F80064CFF6FF7049F80050C0
:1015D00049F80B50D9F8000058B9D9F80000002894
:1015E00004BFD9F80000002803D1D9F80000002872
:1015F000F0D0C9F80080039800F01EFA4FF6CC60D6
:10160000C9F80064CFF6FF7049F8005049F80B5054
:10161000D9F8000058B9D9F80000002804BFD9F85B
:101620000000002803D1D9F800000028F0D0C9F844
:101630000080029800F016FA4FF6CC60C9F80064FA
:10164000CFF6FF7049F8005049F80B50D9F8000068
:1016500058B9D9F80000002804BFD9F800000028C4
:1016600003D1D9F800000028F0D02046C9F8008046
:1016700000F0E2F94FF6CC60C9F80064CFF6FF70D5
:1016800049F8005049F80B50D9F8000000287FF4C1
:101690004DAFD9F80000002804BFD9F80000002899
:1016A0007FF444AFD9F800000028EDD03EE7204693
:1016B00000F0D8F94FF080400121016040F20010A5
:1016C000C4F200000168012908D0016801291CBF8B
:1016D0000168012902D001680129F3D141F21855AE
:1016E0004FF00008C0F800804E20C4F20005082624
:1016F0004FF0010A45F80C6C45F808AC00F088F989
:10170000C9B2652980F05B8100F0010041EA002048
:1017100045F8100C2868042161F31240286048F64F
:1017200005502221CCF643306860A86048F207706B
:10173000CCF24770E8604AF22770CEF267702861F9
:101740004FF6DC60C5F818A042F22015CFF6FF7006
:10175000C4F2000545F800A007A801F030FF2020E2
:1017600000F042F941F218524FF6F063C4F2000261
:10177000CFF6E04352F8042C10F0010018BF062603
:101780001A40CBB2212B38BF0626324441F21856FC
:1017900002F54032C4F2000646F8042C41F2185219
:1017A000C4F2000200261268002818BF0846CFF6CF
:1017B000FF4632402E4641F218551A44C0B2C4F2D8
:1017C000000542EA0020022100F18070286045F8FF
:1017D000148C42F24852E8694FF6E863C4F2000202
:1017E000CFF6FF7361F30100E8614FF6FF7010213F
:1017F000686241F22100C0F20100286246F2666090
:10180000C7F26520159047F22030C6F66E1014908E
:1018100046F67410C6F26E70139047F25340C7F24A
:101820006120129012A8C6F82404116046F803A0A3
:10183000316841B93168002904BF3168002902D1FB
:1018400031680029F4D0002131605168102924D179
:1018500042F62E61C0F62E21CDF84F1046F26751A8
:10186000C2F67461139147F22041C7F261211291CF
:10187000C6F824040B2010600120F050306840B9F5
:101880003068002804BF3068002802D13068002882
:10189000F4D00020306050680B28039800F0E2F884
:1018A000029800F0DFF8204600F0DCF844F2402017
:1018B0000DF11C08C0F20F000126C9F800044FF614
:1018C000CC60CFF6FF704FF0020A002549F80060A7
:1018D00049F80B6002E0B8F1000F7CD043F24C7184
:1018E0004046C0F20001222201F0D2FC3DB3039831
:1018F00007F821AC00F0B6F8204600F09DF8002073
:1019000043F2DC61169043F28870C0F2000012AA24
:10191000129010A8149041F2CD20C0F20000C0F245
:1019200000011190A7F1210010900198CDF84CA072
:10193000159600F0C8FDD9F8000070BBCBE741F266
:1019400018500025C4F20000456140F8148C806BEB
:10195000039800F071F8204600F084F843F2987084
:1019600043F2DC61C0F2000012AA129043F27860E8
:10197000C0F20000C0F20001149001981695139671
:10198000159500F0A0FD029800F082F803254FF0B5
:101990000008D9F8000000289DD00020C9F80000F8
:1019A00044F24020C0F20F00C9F800044FF6CC60AA
:1019B000CFF6FF7049F8006049F80B608BE743F2FF
:1019C000D85043F23C62C0F20000C0F20002202175
:1019D00000F0ACFBFEDE43F270720020C0F20002A9
:1019E000222101F048F9FEDE0146C0B221283CBFA9
:1019F0000120704780B56F4643F2B97043F2D87248
:101A0000C0F20000C0F200021E2100F08FFBFEDEDB
:101A10000146C0B265283CBF0020704780B56F46C4
:101A200043F2D85043F60402C0F20000C0F20002B4
:101A3000202100F07BFBFEDE027840F20C51407862
:101A4000C5F20001002A4FF0010200F01F0001F56D
:101A5000407104BF40F20C51C5F2000102FA00F0DF
:101A600008607047027840F208514078C5F20001E2
:101A7000002A4FF0010200F01F0001F5407104BF81
:101A800040F20851C5F2000102FA00F00860704708
:101A900040F2045C02784078C5F2000C0CF540730B
:101AA000002A04BF40F20453C5F2000300F01F00F7
:101AB0001B68012101FA00F0184207D04FF442716F
:101AC000002A08BF08214CF8010070474FF441710B
:101AD000002A08BF04214CF801007047F0B503AF9D
:101AE0002DE9000786B0814600F04FFA054600F068
:101AF00048FA00F04AFA064600F043FA40F20108BC
:101B0000C2F2000898F80040002C04BF012088F8B9
:101B10000000F00708BF00F036FA002C04BF0120D7
:101B200088F80000E80708BF00F02DFA94B900F02B
:101B30002CFA054600F025FA40F20000C2F200003F
:101B40000478002C04BF01210170E80708BF00F0F1
:101B50001AFA34B1022089F8000006B0BDE8000787
:101B6000F0BD40F208554FF48010C5F20005032681
:101B700028604FF0000A0220C5F84862C5F844A268
:101B8000002107F8200C0C2207F8220C41F200304B
:101B9000C1F200404FF00C0847F8260CA7F12600D0
:101BA00000F049F840F60C240820C5F80403C5F2FB
:101BB000000420202660C5F8040340F20140A6601E
:101BC0000221C4F804A0002227F81A0C40F20130C8
:101BD000C0F20150002347F81E0CA7F11E00CDF8FB
:101BE00000A000F02AF840204FF48001C5F800035F
:101BF0004FF40000E66028600120C5F85402296017
:101C00004FF08071C5F850022960C5F85802C5F838
:101C1000F884A9F8080041F20060C1F60000C9F894
:101C2000040040F20160C1F20070C9F8000006B083
:101C3000BDE80007F0BD00F072B8F0B503AF4DF895
:101C400004BD45784FF6C07E047843F2005C867888
:101C500005F01F05C7F6FF7EC4F2020C45EA4415E5
:101C6000022E45EA0E04CCF808400ED14FF0FF34A6
:101C7000CCF80C400479022C13D0407900F01F00FE
:101C800040EA441040EA0E000DE0C47804F01F045E
:101C900044EA461444EA0E04CCF80C400479022CC1
:101CA000EBD14FF0FF30CCF810000720D7F808E058
:101CB000CCF8000083F0010012B908B100220EE058
:101CC00082F001041C4201D0022208E0002A4FF0F9
:101CD000060218BF04220623002808BF1A4648B28D
:101CE00043F61401C0F2000151F82000CCF8542052
:101CF000CCF824005FFA8EF0CCF8C0005DF804BB8D
:101D0000F0BD48F2002040F20111C4F20000016071
:101D10000421C0F810130321C0F808137047F0B570
:101D200003AF2DE9000B40F2085543F63806C5F223
:101D30000005837890F800C052B2447805F54075EC
:101D4000C0F2000690F80380002B04BF40F2085553
:101D5000C5F2000556F822E004F01F0242F20059D5
:101D600042EA4C124FF6C07CC7F6FF7C42EA0C04F4
:101D7000C4F200090126C9F8144008F01F04827952
:101D800044EA4313A64043EA0C032E600579C47964
:101D90004079022DC9F80C3000F01F0040EA4510D0
:101DA00040EA0C0008BF4FF0FF30C9F8100004F003
:101DB0001F00022A40EA421040EA0C0008BF4FF020
:101DC000FF30C9F808000820C9F80000901E18BFAD
:101DD0000120AA1E18BF0122104061F3410061F3E7
:101DE000820061F3C300C9F86C00C9F824E0BDE8C3
:101DF000000BF0BD006800F0E7B880B56F4682B018
:101E000000228029019207D28DF80410012201A935
:101E100000F06DF802B080BD02220B4662F39F1302
:101E2000B1F5006F05D28DF80530C02343EA91115A
:101E300025E0B1F5803F11D28DF806308B0962F3B1
:101E40009F13E02242EA11318DF805308DF804101D
:101E5000032201A900F04BF802B080BD8DF80730D5
:101E60008B0962F39F138DF806300B0B890C62F31C
:101E70009F131E2262F3DF0104228DF805308DF8D6
:101E8000041001A900F033F802B080BD0A4643F601
:101E90008001C0F2000100F016BB704780B56F46AC
:101EA0008AB0009000F06DF800F050F8E0B9002022
:101EB000019106900220039043F69C00C0F20000BE
:101EC00043F6800102900120059008A8049041F695
:101ED000F550C0F2000002AA09906846089001A8D7
:101EE000C0F2000100F0EFFA00F049F8FEE7002A26
:101EF00004BF00207047F0B503AF2DE9000B84B09C
:101F0000D0F800900C46CDE9019101A905201646B4
:101F1000039200F032F8411EB14210D20DF10408D4
:101F200005460390301A414604440520CDF804903C
:101F3000029400F022F8411E2E46A942F0D3002858
:101F400018BF012004B0BDE8000BF0BD80B56F469E
:101F500084B0032001A903900420029043F6AC0052
:101F6000C0F200000190012000F007F801460130A6
:101F7000B0FA80F0400904B080BDABBE704700BE2F
:101F8000704772B6704762B67047EFF310807047C3
:101F900080B56F46FFF72BFAFEDEFEE7704700685C
:101FA000FEE7704770474AF6F76041F2994143F601
:101FB000F63240F28733C6F66330CFF20A21C4F21C
:101FC000B022C4F2F7037047F0B503AF2DE9000F5C
:101FD0008DB0D1E905B843F6D001D8F80C9006468B
:101FE000C0F200010C225846C84720B101200DB0B4
:101FF000BDE8000FF0BD43F6B8020021F068C0F262
:10200000000205910321019200F10C02029107AC3C
:10201000049143F29111C0F200010394CDE90A1238
:1020200001AA0C9100F10801099143F28521C0F247
:102030000001CDE907015846414600F044FA20B1BD
:1020400001200DB0BDE8000FF0BDD6F808A0BAF130
:10205000000F0CD043F6DC015846C0F2000102220A
:10206000C84770B301200DB0BDE8000FF0BDD6E940
:102070000050C1682846884741F28166CFF6BC56B9
:1020800073404CF69C06CCF2A216714019434EF6F2
:102090006473C0F2B1035A4047F6C133CCF61E5305
:1020A00058401043084326D143F6DC015846C0F29D
:1020B00000010222C847A0B101200DB0BDE8000F09
:1020C000F0BD204622469AE87A1080E87A105846F9
:1020D000414600F0F8F970B101200DB0BDE8000FE5
:1020E000F0BDD5E900125846C84720B101200DB017
:1020F000BDE8000FF0BD00200DB0BDE8000FF0BD41
:1021000080B56F4686B0CDE9030143F6E000C0F22A
:1021100000000122029043F6B400C0F20000ADF8C6
:102120001420019001A8FFF7B9FEFEDE80B56F46CE
:1021300088B094460122019206AA009243F6B402A6
:102140000023CDE90601C0F200026846614604930F
:1021500003930292FFF7D4FFFEDEF0B503AF2DE943
:10216000000F89B01446026806924FF0000A4268D8
:102170004FF0000880684FF00009CDE90701481CC6
:102180000290C4F101000190604205920390049412
:1021900011E0501810F8010C0A38B0FA80F040092C
:1021A000079EDDE90443DB683070069898470028F5
:1021B000DA4640F0E580B9F1000F40F0DC80A04540
:1021C00000F2BE800898A4EB0803082B00EB08017E
:1021D00021D2444500F0B3800398002240448B5C38
:1021E0000A2B00F0978083185E1C00F0A8808E18E0
:1021F00075780A2D39D09D1C00F0A180B5780A2D84
:1022000035D0033300F09B80F3780A2B31D00432B1
:102210008318E4D193E0C81C20F00300401A18BFD3
:10222000002803D1A3F1080200202BE0A0F1020E48
:10223000A0F1030C441E00228D5C0A2D20D0944294
:1022400010D08D186E780A2E15D096450AD0AE782B
:102250000A2E12D0944505D0ED780A2D0FD0043205
:102260009042E9D1A3F1080220E0013252E00232AB
:1022700050E003324EE0013202E0023200E003326D
:10228000049C47E00E580D186D6886F00A34A4F1DE
:10229000013424EA060685F00A34A4F1013424EA64
:1022A00005052E4316F0803F02D108309042E9D94F
:1022B0001A1A43D0019E00EB0801029B01EB060CA9
:1022C000039E0B448D1903215C1814F8046C0A2E2C
:1022D00019D00CEB0106032E30D014F8036C0A2E33
:1022E00013D06E18012E29D014F8026C0A2E0ED0CD
:1022F0008A4223D014F8016C0A2E09D004316E18DA
:10230000032EE1D11AE0033902E0023900E001397D
:10231000049C0A1808EB020000F10108A042BFF477
:102320004EAF0899085C0A287FF449AF4FF00009C6
:10233000C34644460798007850B913E0049CA04671
:10234000A24518D04FF00109D3460798007848B14C
:10235000059843F6B001C0F200010422C368069854
:10236000984768B90898B4EB0A0200EB0A017FF4B9
:1023700010AF002014E7002009B0BDE8000FF0BD49
:10238000012009B0BDE8000FF0BDF0B503AF4DF876
:10239000048D86688846D0E90054307860B1E368DF
:1023A00043F6B001C0F2000128460422984718B154
:1023B00001205DF8048BF0BDA8F10A002269B0FA93
:1023C00080F041464009307028465DF8048BBDE836
:1023D000F0401047F0B503AF2DE900078EB004467A
:1023E0000668007A40B10120711C207221602046ED
:1023F0000EB0BDE80007F0BD656891468846E86903
:1024000041071AD443F6081143F60C12D5E9050327
:10241000C0F20001C0F20002002E08BF1146DB68C6
:102420004FF0020208BF012298470028DBD1D9F8FB
:102430000C20404629469047D6E75EB9D5E905010C
:102440000222CB6843F60D11C0F200019847002824
:10245000C9D1E86943F6F0020121C0F20002D5F8C3
:1024600010C00C9001AB0B9207F83D1CA7F13D0189
:102470006A6903910A93D5E900A195F820E0D5E9AE
:102480000203AD69CDE905A105A98DF834E0CDE9D8
:10249000012507AA82E809104046D9F80C20904788
:1024A0000028A0D1DDE90A010222CB6843F60A1117
:1024B000C0F20001984797E70A4643F6F001C0F2E0
:1024C000000100F000B8F0B503AF2DE9000F8DB0AA
:1024D000032316698DF83030202308930023002E43
:1024E000CDE90A130990069304936FD05069002830
:1024F00000F09280D2F800A04101D2F808B0013873
:1025000020F078404FF000084FF0000901300292AF
:10251000039101900AEB0900426842B1DDE9090329
:102520005AF80910DB689847002840F0868006EBCF
:102530000800036906EB8900D0E90221057F846960
:1025400008938DF830500B947AB1012A08D10BEB27
:10255000C10241F69F73C0F2000352689A4201D053
:10256000002203E05BF831100968012256F80830B8
:10257000CDE9042141687BB1012B08D10BEBC102ED
:1025800041F69F73C0F2000352689A4201D00022C4
:1025900003E05BF8311009680122436907910BEBF6
:1025A000C3015BF833004B6804A9069298470028E2
:1025B00043D1039808F1200809F108094045A9D141
:1025C000DDE901A2506882452BD33BE0D06818B307
:1025D00094680DF110081168914604EBC0060138AB
:1025E00020F060400D1D00F1010A2A6832B1DDE9DA
:1025F000090355F8041CDB689847F0B9D4E90002D8
:1026000041469047C8B908340835B442EDD14A462E
:102610005068824505D315E04FF0000A50688245A6
:1026200010D212685646DDE90901CB6852F83A101B
:1026300002EBCA025268984720B101200DB0BDE8F4
:10264000000FF0BD00200DB0BDE8000FF0BDD4D4E8
:10265000F0B503AF2DE9000F87B0FD681C461646A4
:10266000814600294DD0D9F81C802B2118F001009B
:1026700008BF4FF4881100EB050A0691D7F808B09F
:102680005FEA487048D5102C80F07680002C00F06E
:10269000A08004F0030CA2084FF0000000F0AA8014
:1026A000A0EB820E731CCDE9034BAB466FF0030524
:1026B00005965E19043596F9034096F9061096F9C9
:1026C000052014F1410F96F90460C8BF013016F1DE
:1026D000410FC8BF013012F1410FC8BF013011F1E5
:1026E000410F0EEB0501C8BF01300431E1D12A1DB5
:1026F0005D46059EDDE9034BBCF1000F40F07E8096
:1027000094E02D20D9F81C8005F1010A0690D7F835
:1027100008B05FEA4870B6D40026D9F80000002857
:1027200000F08A80CDE904B6D9F804B0D34510D9B9
:102730005FEA087025D499F82000ABEB0A0A0395EC
:10274000A346DFE800F09602900250464FF0000AE0
:102750008FE020462E46D9E9054500902946DDE95F
:102760000532204600F0D4F848B34FF00108404647
:1027700007B0BDE8000FF0BD3046214600F09CFADE
:1027800054E0D9F8100021460390302099F8202019
:102790004FF001082E46D9E90545C9F8100002920C
:1027A00089F82080204600912946DDE9053200F0B5
:1027B000AFF880B1404607B0BDE8000FF0BDEB6850
:1027C00020460499324607B0BDE8000FBDE8F0404E
:1027D000184700202AE0ABEB0A00DDF810A0B04655
:1027E000461C013E6ED02A692046302190470028C1
:1027F000F7D06DE00022BCF1000F17D0B15611F1F7
:10280000410FC8BF0130BCF1010F0FD0324492F923
:10281000011011F1410FC8BF0130BCF1020F05D00A
:1028200092F9021011F1410FC8BF01308244D9F86A
:10283000000000287FF476AF2046A846D9E9054578
:10284000334600902946069A204600F061F8002899
:102850003ED1EB6820465946424607B0BDE8000F1E
:10286000BDE8F04018470AF101014FEA5A004FEA6B
:10287000510AD9E90458441CD9F81860013C06D023
:1028800032694046294690470028F7D020E0CDF82D
:1028900000B04046DDE90532314600F039F8B8B9FC
:1028A000F3684046DDE90321984788B90024A24532
:1028B00022D0326940462946904701340028F6D09C
:1028C000601E1AE0EB68204651464246984730B1F8
:1028D0004FF00108404607B0BDE8000FF0BD029878
:1028E0004FF0000889F820000398C9F8100040460E
:1028F00007B0BDE8000FF0BD50464FF0000850454E
:1029000038BF4FF00108404607B0BDE8000FF0BDEA
:10291000F0B503AF4DF8048DD7F808801C460D467E
:102920000646B2F5881F08D02B69304611469847F5
:1029300018B101205DF8048BF0BD44B1EB6830465E
:10294000214642465DF8048BBDE8F0401847002060
:102950005DF8048BF0BDD4D4F0B503AF2DE9000FC2
:1029600081B08146D0F800C080688A465CEA0001E8
:1029700002D1D9E90501EAE0002874D0D9F80C00A9
:102980000AEB020E4FF0000B5146461C09E040EAEC
:102990008115A11CABEB0400B5F5881F00EB010B02
:1029A00061D0013E0C4628D074455CD0214611F917
:1029B000010BB0F1FF3FC5B2ECDC607805F01F0100
:1029C000DF2D00F03F00E2D9A378F02D03F03F03A4
:1029D00043EA80100DD3E37801F0070103F03F03D1
:1029E00043EA801040EA8145B5F5881F3BD0211DA0
:1029F000D0E740EA0135E11CCCE7744533D094F9C7
:102A00000000B0F1FF3F04DCC1B2E02928BFF0298B
:102A100015D2BBF1000F09D0934506D21AF90B006D
:102A200010F1400F02DA002101E0FCD151460029EB
:102A30000CBF93468A46BCF1000F18D184E0A378FE
:102A400001F00701607803F03F03E67800F03F00F3
:102A50009B0143EA003006F03F03184440EA8140FE
:102A6000B0F5881FD5D19346BCF1000F6CD0D9F8D2
:102A70000480BBF1100F32D2BBF1000F34D00BF049
:102A8000030C5FEA9B024FF000002FD0A0EB820EF8
:102A90000AF101036FF003069D19043695F903400E
:102AA00095F9061095F9052014F1410F95F9045098
:102AB000C8BF013015F1410FC8BF013012F1410FFD
:102AC000C8BF013011F1410F0EEB0601C8BF013044
:102AD0000431E1D1321DBCF1000F0BD123E050468F
:102AE000594600F0E9F81EE000201CE00022BCF18D
:102AF000000F18D01AF9021011F1410FC8BF0130B0
:102B0000BCF1010F0FD0524492F9011011F1410FA5
:102B1000C8BF0130BCF1020F05D092F9021011F1CB
:102B2000410FC8BF013080450ED999F82010CDF86B
:102B300000A0A8EB000A0020DFE801F0170211173F
:102B400050464FF0000A10E0D9E905015A46CB681B
:102B5000514601B0BDE8000FBDE8F04018470AF14A
:102B600001014FEA5A004FEA510AD9E90486441C90
:102B7000D9F81850013C06D02A69304641469047A2
:102B80000028F7D005E0EB68304600995A46984790
:102B900020B1012001B0BDE8000FF0BD0024A24526
:102BA00008D02A6930464146904701340028F6D0C3
:102BB000611E00E051460020514538BF012001B0A0
:102BC000BDE8000FF0BDD0E90503DB681847F0B59C
:102BD00003AF4DF804BD84B015460646D0E90502A2
:102BE0001C46D3682A4698478DF80C00B5FA85F044
:102BF000BA6801A9400902968DF80D0000200190E5
:102C000008462146FFF7E6FB01989DF80C4030B1DD
:102C10006CB10124204604B05DF804BBF0BD002C6B
:102C200018BF0124204604B05DF804BBF0BD029D2E
:102C3000012811D19DF80D0070B1287F40070BD4F9
:102C4000D5E905010122CB6843F60F11C0F200015E
:102C5000012498470028DDD1D5E905010122CB6880
:102C600043F6B401C0F2000198470446204604B080
:102C70005DF804BBF0BD80B56F468CB0CDE90001B6
:102C8000002006900320039043F61820C0F20000B5
:102C9000694602900220059008A8049043F2911022
:102CA000C0F20000CDE9090111460B9001A808907F
:102CB00002A8FFF725FAFEDEF0B503AF2DE9000FFD
:102CC00082B08146033020F0030AAAEB090841458F
:102CD0000AD3A1EB080E5FEA9E0C05D00EF00302AA
:102CE000CA455AD10020A0E089B301F0030C8A083C
:102CF0004FF0000030D0A0EB820E09F101066FF01A
:102D000003057319043593F9031093F9064093F9F9
:102D1000052011F1410F93F90430C8BF01300EEBCB
:102D2000050113F1410FC8BF013012F1410FC8BFB7
:102D3000013014F1410FC8BF01300431E1D12A1D27
:102D4000BCF1000F0CD102B0BDE8000FF0BD0020B7
:102D500002B0BDE8000FF0BD0022BCF1000FF2D0C0
:102D600019F9021011F1410FC8BF0130BCF1010F78
:102D7000E9D04A4492F9011011F1410FC8BF013066
:102D8000BCF1020FDFD092F9021011F1410FC8BF60
:102D9000013002B0BDE8000FF0BD6FEA09005044F9
:102DA000032802D20020002523E009F1010B0020B6
:102DB0006FF003060BEB060595F9034095F9063015
:102DC00095F9051014F1410F95F90450C8BF013071
:102DD00015F1410FC8BF013011F1410FC8BF0130DB
:102DE00013F1410FC8BF013016F1080506F10406C2
:102DF000E0D1CA4519D019F9051011F1410FC8BF2A
:102E00000130B8F1010F10D005EB090191F9013043
:102E100013F1410FC8BF0130B8F1020F05D091F98D
:102E2000021011F1410FC8BF013009EB0804002363
:102E3000C2B12EF00301214491F9006016F1410F57
:102E4000C8BF0123012A0DD091F9016016F1410F8D
:102E5000C8BF0133022A05D091F9021011F1410FC8
:102E6000C8BF013318446FF00F0912E04FF000089B
:102E70003FFA88F23FFA98F31A44ACEB0B0C0AEBDA
:102E80008B041BF0030102EB024200EB124040F006
:102E90004E81BCF1000F3FF456AFBCF1C00FE346CA
:102EA00028BF4FF0C00BA246BBF1040FDED309EBE5
:102EB0008B010122302902EB111207D24FF00008DA
:102EC000544612F0030E40F0B980D1E722F0030916
:102ED0004FF0000854460092CDF804A094E80E0488
:102EE000B9F10409A6696FEA010E4FEADE1545EA59
:102EF00091116FEA020521F0FE314FEAD51545EA3E
:102F00009212414422F0FE320A446FEA03014FEA72
:102F1000D11545EA931323F0FE3325691A446FEA6D
:102F20000A034FEAD313616943EA9A13D4F838804D
:102F300023F0FE33D4F83CE01A446FEA05034FEA6D
:102F4000D31343EA9513E56923F0FE331A446FEA7D
:102F500001034FEAD31343EA911121F0FE31236AB2
:102F600011446FEA06024FEAD21242EA9612666AEA
:102F700022F0FE3211446FEA05024FEAD21242EA11
:102F80009512A56A22F0FE3211446FEA03024FEA5D
:102F9000D21242EA9312E36A22F0FE3211446FEA3F
:102FA00006024FEAD21242EA9612266B22F0FE3255
:102FB00011446FEA05024FEAD21242EA9512656B9C
:102FC00022F0FE3204F1400411446FEA03024FEA9A
:102FD000D21242EA931222F0FE3211446FEA060244
:102FE0004FEAD21242EA961222F0FE3211446FEA00
:102FF00005024FEAD21242EA951222F0FE32114443
:103000006FEA08024FEAD21242EA981222F0FE3228
:1030100011446FEA0E024FEAD21242EA9E1222F0E7
:10302000FE3202EB01087FF459AFDDF804A06FF027
:103030000F09009A12F0030E3FF41AAF94E84C0007
:10304000BEF1010FE5686FEA02014FEAD11141EAD2
:1030500092116FEA03024FEAD21221F0FE3142EAE6
:103060009312414422F0FE3211446FEA06024FEA05
:10307000D21242EA961222F0FE3211446FEA0502A1
:103080004FEAD21242EA951222F0FE3202EB010818
:103090003FF4EEAE04F11005BEF1020F2ECD6FEA43
:1030A00001064FEAD61646EA91116FEA020621F0B0
:1030B000FE314FEAD61646EA9212414422F0FE3221
:1030C00011446FEA03024FEAD21242EA931222F04D
:1030D000FE3211446FEA05024FEAD21242EA95121B
:1030E00022F0FE3202EB01083FF4C2AE04F12006EA
:1030F0004ECECD43ED0945EA9111D54321F0FE3185
:10310000ED0945EA9212414422F0FE321144DA43BD
:10311000D20942EA931222F0FE321144F243D2095C
:1031200042EA961222F0FE3202EB0108A0E60BF012
:10313000FC0301295AF823206FEA02064FEAD6164B
:1031400046EA921222F0FE3215D00AEB83030229DE
:103150005E686FEA06054FEAD51545EA961626F031
:10316000FE36324407D09968CB43DB0943EA91111C
:1031700021F0FE310A443FFA82F13FFA92F2114403
:1031800001EB014100EB114002B0BDE8000FF0BDC2
:10319000F0B503AF2DE9000F8DB0046843F61010B1
:1031A00042F2107E0D467445C0F200003DD341F25C
:1031B00059784EF2FF03A7F1430B0021CDF2B71867
:1031C00041F27B494FF0640AC0F2F5530295A4FB2B
:1031D00008250BEB010C04399C424FEA553202FBE7
:1031E0001E451446AEB24FEA960606FB09F64FEAB4
:1031F000564606FB1A5530F81660ACF82360ADB29F
:1032000030F81550ACF82550E1D8029D01F12703A4
:103210001446632C0CD821460A291BD330F8110020
:103220009A1EA7F1430188521AE02723632CF2D992
:10323000A1B241F27B428908023B51436422A7F1CB
:103240004306490C01FB124292B230F81220F252AE
:103250000A29E3D201F130005A1EA7F14301885434
:10326000C2F12700114443F6B4020023CDE9001057
:10327000C0F2000228460121FFF7EAF90DB0BDE8CF
:10328000000FF0BD0B46D0E900121846FFF764BBF3
:1032900000F000B800F09FB8042A18D3B0B502AF10
:1032A000A2F1040E012303EB9E0313F0030414D0D8
:1032B0008C4603465CF8045B012C43F8045B15D193
:1032C000184661467246BEF10C0F21D208E08C46CA
:1032D000034618466146FFF7DDBFBEF10C0F17D25B
:1032E000BDE8B04018466146FFF7D4BF4B68022CDA
:1032F000436003D1083A0831083004E08B680C3A87
:1033000083600C310C3003468C46BEF10C0FE7D3C2
:103310000B68103A0360032A4B6843608B68836034
:10332000CB6801F11001C36000F11000F0D88C46A9
:103330000346BDE8B04018466146FFF7ABBF0B46F9
:1033400011461A4600F0EBB8D2B2042938BFFFF795
:10335000F6BFD0B502AF4FF00133A1F1040E5343D5
:10336000012404EB9E0414F003040AD08446012CCB
:103370004CF8043B0DD160467146BEF10C0F19D2DA
:1033800002E0BEF10C0F15D2BDE8D0406046FFF759
:10339000D6BF022C436006D1083908308446BEF1FE
:1033A0000C0F07D2F0E783600C390C308446BEF175
:1033B0000C0FE9D31039C0E90033C0E902331030F3
:1033C0000329F7D88446BDE8D0406046FFF7B7BF71
:1033D0000022FFF7B9BFF0B503AF2DE90007102AAF
:1033E00063D3434213F0030400EB040C16D00346EE
:1033F0000E46357803F8015B63450FD2757803F804
:10340000015B63453EBFB57803F8015B634505D2B8
:10341000F578043603F8015B6345EAD3A2EB040EAA
:1034200001EB04092EF003080CEB08035FEA897135
:103430003ED0B8F1010F54DB182129F0030201EA54
:10344000C90A4FEAC90102F108054942126801F0B0
:10345000180655F8041C22FA0AF201FA06F422436F
:103460004CF8042B9C453CD22A6821FA0AF102FA56
:1034700006F421434CF8041B9C453FBF696822FABF
:103480000AF201FA06F422433CBF4CF8042B9C4597
:1034900027D2AA6821FA0AF1103502FA06F421436C
:1034A0004CF8041B9C45D4D31BE00346F2B933E02F
:1034B000B8F1010F15DB4C4621684CF8041B9C4504
:1034C0000FD261684CF8041B9C453EBFA1684CF8C4
:1034D000041B9C4505D2E16810344CF8041B9C4544
:1034E000EAD309EB08010EF00302AAB11A440E78E0
:1034F00003F8016B93420FD24E7803F8016B9342AD
:103500003EBF8E7803F8016B934205D2CE7804312A
:1035100003F8016B9342EAD3BDE80007F0BDD0B5D4
:1035200002AF102A35D3434213F0030E00EB0E0C0A
:103530000FD0034603F8011B63453FBF03F8011B8F
:10354000634503F8011B634503D203F8011B634580
:10355000F0D3A2EB0E0E2EF003020CEB0203012AB5
:1035600013DBCAB24FF0013462434CF8042B9C4584
:103570000BD24CF8042B9C453CBF4CF8042B9C45CB
:1035800003D24CF8042B9C45EFD30EF0030212B982
:1035900012E0034682B11A4403F8011B93420BD296
:1035A00003F8011B93423CBF03F8011B934203D273
:1035B00003F8011B9342EFD3D0BDFFF76DBEFFF7B9
:1035C00007BF70460421084202D1EFF3088002E0F1
:0835D000EFF30980FFE7FEE7BD
:1035D800617373657274696F6E206661696C656486
:1035E8003A206368616E6E656C203C3D2031303056
:1035F8002F686F6D652F6A7562656F722F727573AC
:10360800742D706C617967726F756E642F6D64705C
:103618002D6C696E6B2D72732F6E726635322D723A
:103628006164696F2F7372632F726164696F2E72A0
:1036380073000000F835000041000000E6000000BB
:1036480007000000545820737563636573736675CB
:103658006C6C79204275666665724E6F7444656657
:10366800696E656457726F6E6753746174650000A4
:103678005374616E646279526571756972656452DA
:1036880078427566666572427573795478427566D4
:1036980066657242757379526563656976654E6FC2
:1036A80074537461727465645265747269657345A4
:1036B80078636564646564526164696F4572726FAA
:1036C80072000000C712000004000000040000009F
:1036D80087110000C912000000000000010000006E
:1036E8005D130000B1110000B912000063616C6C39
:1036F800656420604F7074696F6E3A3A756E7772C0
:103708006170282960206F6E206120604E6F6E65A1
:10371800602076616C7565736E69666665722D7476
:1037280061726765742F7372632F6D61696E2E7293
:10373800730000001F3700001A0000003800000066
:10374800230000003300090D626DFA5D00003EC2DF
:103758003B000F786DF90000000000000000000039
:1037680000000000000000001F3700001A000000E1
:103778005E0000000D0000004572726F723A200A68
:1037880080370000070000008737000001000000B4
:103798004C360000100000006E726635322D6573DD
:1037A800622F7372632F70726F746F636F6C2E72F7
:1037B80073617373657274696F6E206661696C6595
:1037C800643A206C656E677468203C3D2033320093
:1037D800A0370000190000001400000005000000D8
:1037E8006E726635322D726164696F2F7372632F42
:1037F8006672657175656E63792E7273E8370000BD
:103808001C00000009000000050000000000000284
:103818000000000400000008000000100000002064
:1038280000000040000000800000000A00000014B2
:1038380000F0040000D0090000B013000050270079
:1038480000F03A0000A04E0000C0750000008000A3
:1038580000009D000000E5000000EB0000903A0128
:103868000000D6010000B00300000004000040077B
:103878000000000F000000109B1E00000400000064
:1038880004000000EF1E0000FB1D00008D1E00005C
:103898000A0000008038000000000000983800008E
:1038A800010000003A74740020202020293A00000A
:1038B800B438000000000000B53800000100000026
:1038C800B53800000100000070616E69636B6564C3
:1038D800206174203A0A0000A51F000000000000C3
:1038E80001000000A71F0000A31F00000C0000003B
:1038F800040000005B2100008B230000B9240000B5
:103908002C202C0A28280A2C303030313032303321
:103918003034303530363037303830393130313175
:10392800313231333134313531363137313831395B
:103938003230323132323233323432353236323753
:103948003238323933303331333233333334333539
:10395800333633373338333934303431343234331F
:103968003434343534363437343834393530353105
:1039780035323533353435353536353735383539EB
:1039880036303631363236333634363536363637E3
:1039980036383639373037313732373337343735C9
:1039A80037363737373837393830383138323833AF
:1039B8003834383538363837383838393930393195
:1039C800393239333934393539363937393839397B
:1039D800736F7572636520736C696365206C656EBF
:1039E80067746820282920646F6573206E6F7420BF
:1039F8006D617463682064657374696E6174696F5E
:103A08006E20736C696365206C656E677468202826
:103A1800D839000015000000ED3900002B00000027
:083A2800B438000001000000A9
:0400000300001101E7
:00000001FF
