:101000000000042001110000332D0000B54600004F
:10101000332D0000332D0000332D000000000000B0
:10102000000000000000000000000000332D000060
:10103000332D000000000000332D0000332D000090
:10104000332D0000332D0000332D0000332D000020
:10105000332D0000332D0000332D0000332D000010
:10106000332D0000332D0000332D0000332D000000
:10107000332D0000332D0000332D0000332D0000F0
:10108000332D0000332D0000332D0000332D0000E0
:10109000332D0000332D0000332D0000332D0000D0
:1010A000332D0000332D0000332D0000332D0000C0
:1010B000332D0000332D0000000000000000000070
:1010C000332D0000332D0000332D0000332D0000A0
:1010D000332D0000332D0000332D0000332D000090
:1010E000332D0000332D0000332D000000000000E0
:1010F00000000000332D000000000000332D000030
:1011000080B56F4601F016FE40F2040040F2000187
:10111000C2F20000C2F20001814210D2002241F866
:10112000042B81420BD241F8042B81423CBF41F891
:10113000042B814203D241F8042B8142EFD340F2C9
:10114000000140F20000C2F20001C2F20000884239
:101150000ED2021D914288BF0A46C143114421F0BC
:1011600003010A1D44F62041C0F2000103F09EFA7B
:101170004EF68850CEF20000016841F47001016023
:1011800001F0D2FDFEDECA69D30648BF02F0EBBE15
:10119000920658BF02F0B6BF02F025BFF0B503AF0C
:1011A0002DE9000F85B000208029009003D28DF832
:1011B0000010012032E002200A4660F39F12B1F5D0
:1011C000006F07D28DF80120C02242EA91118DF8FC
:1011D000001023E0B1F5803F0DD28DF802208A097E
:1011E00060F39F12E02040EA11308DF800008DF886
:1011F0000120032012E08DF803208A0960F39F127A
:101200008DF802200A0B60F39F12880C1E218DF8C6
:10121000012061F3DF008DF80000042042F2201469
:1012200042F2445B0DF104084FF00009EA46C4F2B3
:101230000004C4F2000BCDE90399CDE9019907E060
:10124000C4F80090DBF80810701BAA44A94221D111
:101250000646F8B13546102E28BF102540465146A7
:101260002A4603F08EF84FF6E8600121CFF6FF70B2
:10127000CBF80080CBF80450215020680028DFD143
:101280002068002804BF20680028D9D120680028E1
:10129000F3D0D5E7002E18BF0126304605B0BDE8D3
:1012A000000FF0BD0A4644F23071C0F2000101F0B7
:1012B000F6BF70477047D4D40A4601780239C9B2E4
:1012C000052928BF0521DFE801F0030B131B232BA1
:1012D00044F2CC61C0F2000110460F2202F05FBB65
:1012E00044F2DB61C0F2000110460C2202F057BB51
:1012F00044F2E761C0F2000110460C2202F04FBB3D
:1013000044F2F3611046C0F20001112202F047BB23
:1013100044F20471C0F2000110460F2202F03FBBFC
:1013200080B56F4682B0019044F2207044F2137190
:10133000C0F2000001AB00901046C0F200010A228A
:1013400002F031FB02B080BDF0B503AF2DE9000F14
:1013500085B042F2201442F2445B0DF104084FF0D4
:1013600000098A46C4F20004C4F2000BCDE90399D7
:10137000CDE9019907E0C4F80090DBF80800721B82
:10138000AA44A84221D11646FAB13546102E28BFEC
:101390001025404651462A4602F0F3FF4FF6E8601A
:1013A0000121CFF6FF70CBF80080CBF8045021501C
:1013B00020680028DFD12068002804BF20680028AA
:1013C000D9D120680028F3D0D5E7002E18BF012618
:1013D000304605B0BDE8000FF0BD80B56F4600F0A7
:1013E00001F8FEDE80B56F46F0B048AD00208DF804
:1013F0007300284601F03EFA9DF8200102280BD127
:1014000044F2987044F63C02C0F20000C0F20002C0
:101410002B2101F057FDFEDEBDF828014FF6E863F1
:10142000ADF87C0042F62060C2F62E60DDE948127D
:101430004B9046F67310C6F26E70CDE91D124A90BD
:1014400046F26910C6F66C1042F22011499046F639
:10145000496042F24852C7F269404890C4F2000124
:10146000C4F200021020C1F824541060CFF6FF73BC
:101470000120C850086840B90868002804BF0868FF
:10148000002802D108680028F4D000201DAC0860B4
:10149000506804F10A060C9610281AD14FF6E8633A
:1014A0000A208DF820010120CFF6FF73C1F82454E3
:1014B0001060C850086840B90868002804BF086870
:1014C000002802D108680028F4D000200860506885
:1014D000012801F0E2FA48F2401B4FF6C069201DD6
:1014E000A51C1B90A01D4FF0000AC4F2000B4CF28B
:1014F00050340126CFF6FF794FF000081A900AE029
:10150000CBF800A01B9801F079F908F10108B8F1B7
:10151000050F00F0B680284601F05AF94FF6CC606E
:10152000CBF80044CFF6FF704BF800604BF8096031
:10153000DBF8000058B9DBF80000002804BFDBF836
:101540000000002803D1DBF800000028F0D0CBF821
:1015500000A01A9801F03CF94FF6CC60CBF800449B
:10156000CFF6FF704BF800604BF80960DBF8000025
:1015700058B9DBF80000002804BFDBF800000028A1
:1015800003D1DBF800000028F0D02846CBF800A0FB
:1015900001F034F94FF6CC60CBF80044CFF6FF7081
:1015A0004BF800604BF80960DBF8000058B9DBF835
:1015B0000000002804BFDBF80000002803D1DBF89E
:1015C00000000028F0D0CBF800A01B9801F000F933
:1015D0004FF6CC60CBF80044CFF6FF704BF80060BC
:1015E0004BF80960DBF8000058B9DBF80000002870
:1015F00004BFDBF80000002803D1DBF8000000285E
:10160000F0D0CBF800A01A9801F0F8F84FF6CC60B3
:10161000CBF80044CFF6FF704BF800604BF8096040
:10162000DBF8000058B9DBF80000002804BFDBF845
:101630000000002803D1DBF800000028F0D0284685
:10164000CBF800A001F0C4F84FF6CC60CBF8004412
:10165000CFF6FF704BF800604BF80960DBF8000034
:1016600000287FF44DAFDBF80000002804BFDBF852
:10167000000000287FF444AFDBF800000028EDD024
:101680003EE7284601F0BAF840F2001A4FF08040D9
:101690000121C4F2000A0160DAF8000001280BD031
:1016A000DAF8000001281CBFDAF80000012803D096
:1016B000DAF800000128EFD19DF8730041F20458D8
:1016C0000026C4F2000808240121CAF80060C8F806
:1016D0000840C8F80C1001F067F8C9B2652981F01C
:1016E000108000F0010042F22012C4F2000241EA30
:1016F0000020C8F80400D8F81400042161F3124057
:10170000C8F8140048F605504FF6DC61CCF64330BB
:10171000CFF6FF71C8F81800C8F81C0048F207702F
:10172000CCF24770C8F820004AF22770CEF26770FA
:10173000C8F82400FF20C8F82C000120505020A831
:10174000222102F0B5FF29A8222102F0B1FF2020BA
:1017500001F016F8D8F810204FF6F063CFF6E0430A
:1017600010F0010002EA030218BF0624CBB2212BBD
:1017700038BF0624224402F54032C8F81020D8F8B9
:1017800014200024002818BF0846CFF6FF4422404A
:101790001A44C0B242EA0020022100F18070C8F869
:1017A0001400C8F8006042F24852D8F83000C4F281
:1017B0000002012361F30100C8F830004FF6FF700A
:1017C00042F22011C8F8380041F22100C0F20100B5
:1017D000C4F20001C8F8340047F25340C7F2612058
:1017E0008DF82F61489046F67410C6F26E70ADF811
:1017F0002D61499042F62060C2F62E604A900A2080
:101800008DF82C0148A8C1F824040D2010604FF673
:10181000E860CFF6FF700B50086840B908680028F0
:1018200004BF0868002802D108680028F4D000200E
:10183000086050681B9800F0CBFF1A9800F0DEFF9C
:10184000284600F0DBFF44F240200121C0F20F00E7
:101850000026CBF800044FF6CC60CFF6FF700022D4
:101860004BF8001048A801304BF8091000230590F0
:1018700032A8411D043003904FF00070089029A851
:10188000189020A80F90002002900020DDF83080F2
:10189000069019900020049114900021002E1691BA
:1018A0004FD017961C46164602208DF8DC001B9878
:1018B00000F0A4FF284600F08BFF002044F23071B6
:1018C0004C900220499044F65400C0F2000048AA0F
:1018D000489001204B903DA84A9041F2B920C0F2B7
:1018E0000000C0F200013E9037A83D90404601F054
:1018F000D6FC169932462346179EDBF800000028D6
:10190000CCD000200C46CBF8000098461A981796C9
:10191000164600F089FF44F240204346C0F20F0013
:101920003246DDF830802146179E0124CBF80004B2
:101930004FF6CC60CFF6FF704BF800404BF80940F3
:10194000ACE70F9880B141F20450C4F20000C06CC3
:10195000CDE9102300F00F0005280AD244F69001CB
:10196000C0F20001085C05E017961C4616460320ED
:101970009BE7002017900224089844F2307837AE95
:10198000C0F2000864F31F6008901B9800F020FF6D
:1019900048A8419044F680000022C0F200000121D6
:1019A0003D9041F28710C0F20000429138900DF155
:1019B0007300379003208DF83C01CDE94A200C9844
:1019C00040912021CDE94D223DAA4C9141463F96C0
:1019D00001263E94489401F062FC079B48F2A06007
:1019E0000121C0F20100159108E00B911599CDE994
:1019F00009011946072A0B4640F0F283DDE9184831
:101A0000052E22D0022E2FD0179A012E40F0EE8301
:101A10001394D4B2CEB2DFE804F00342557495D9E2
:101A200041F210120023C4F200024FF0010E6FF0D9
:101A3000FF06136042F806E0C2B21492020E16923C
:101A4000C0F3074CC0F30722ADE141F21010C4F21D
:101A500000000068C00740F0FA83072205262046F0
:101A6000CDF864801894C4E7179A010CD6B2DFE869
:101A700016F00600D700E700200138014F0141F2BF
:101A800010110022C4F200014FF0010C0A606FF047
:101A9000FF020126179641F802C00722CBE041F26F
:101AA0001014C4F200042268D20740F06081C2B270
:101AB000C0F3074C1492020E1692C0F307224FF0A7
:101AC000010E70E11C460F9B41F20452002BC4F240
:101AD00000021CBF13609846D26C149B120700F0E2
:101AE000F2814046B8F1000F18BF0120129000208B
:101AF00006260F90139818900D98CDF864801590D5
:101B0000F0E10F9B41F21016C4F20006002B1FBF3C
:101B1000984641F20452C4F20002136056F8102CA9
:101B2000D20740F03181C2B2C0F3074C1492020ECA
:101B30001692C0F3072207204FF0030E12900020E8
:101B40000F9032E11C460F9B41F20452002BC4F26D
:101B500000021CBF13609846D26CDDF850C002F042
:101B60000F060C2E00F2248144F69502C0F200020A
:101B7000965D139A2346B8F1000F00F0208146F0DD
:101B8000040200240126062A0F9440F0858241F2C7
:101B90000452C0F3074CC4F20002C2F8008041F2C4
:101BA0001012C4F2000242F8044C42F80C4C42F805
:101BB000084C14604FF6F864CFF6FF741651C2B2A9
:101BC0001492020E1692C0F3072297E241F210140B
:101BD000C4F2000454F8042CD20704BF22685FEA60
:101BE000C27200F0D081002244F8042C44F80C2C7E
:101BF00044F8082CD4F8F022D20740F07B8141F25F
:101C00000452C4F20002D26C02F00F06042E00F25D
:101C1000D38144F69002C0F2000212F806E0CDE152
:101C200041F21012C4F200021168C90740F0DA80D4
:101C30000722012117912146CDF86480012148E057
:101C4000B8F1000F00F06985FE22002602EAD012EA
:101C500088F8012041F20452C9B2C4F20002C8F867
:101C6000026088F80060C8F80660C8F80A60C8F822
:101C70000E60C8F81260C8F81660C8F81A60C8F894
:101C80001E609162D16C090740F0298541F2101164
:101C9000C2F80080C4F2000141F8106C0E6041F8F7
:101CA000046C41F80C6C41F8086C0121CAF8001F63
:101CB00008E041F21012C4F2000252F8101CC907E9
:101CC00040F09B800321072217912146CDF86480C4
:101CD000032118940B9102261599CDE909011946A3
:101CE00088E641F20452C4F20002D16C01F00F0107
:101CF0000C2900F2C18044F69506C0F20006715C22
:101D0000B8F1000F4FF0000640F0BD8000F0E0BCDD
:101D100041F21012C4F2000252F8041CC90704BFB9
:101D200011685FEAC17100F03F8141F20451002463
:101D3000C4F2000142F8044C42F80C4C42F8084C42
:101D40000C6011681994C90740F0D1841460012116
:101D50006FF0FF0411510722052608900B98CDE97A
:101D600017080A98159915900998069141E60022DE
:101D7000C0F3074C2260C2B21492020E1692C0F356
:101D800007224FF0020E0EE0002200230F92C2B293
:101D900046F8103CC0F3074C1492020E1692C0F3A2
:101DA00007224FF0040E0720129013980126AAE193
:101DB0000926139A2346B8F1000F7FF4E0AE002005
:101DC000189219900F9010460D98159000201290BF
:101DD000CDF850C01946DDF838E00626119ADDF836
:101DE00040C093E100211160022117912146072292
:101DF000CDF86480189402216CE70021A44642F8D3
:101E0000101C41F20451C4F20001C96C01F00F042E
:101E10000C2C00F24A81072202211791614602210F
:101E200002260B911599CDF86480CDF860C0CDE9FC
:101E300009011946DFE814F01600390139013901AA
:101E4000390139013901390139010D001700440107
:101E50004D010321CDF86480179161460321CDF82F
:101E600060C0C2E5C6E50421CDF8648017916146E3
:101E7000CDF860C00421B8E50921B8F1000F4FF09A
:101E8000000600F0258441F00401062940F0368464
:101E9000C2F8008041F21012A4464FF6F864C4F272
:101EA00000020121CFF6FF7442F8046C42F80C6C7A
:101EB00042F8086C1660115105210722179102267D
:101EC000CDE918C891E50026B8F1000F40F0A980CF
:101ED0000020062619900F90139818900D981590D1
:101EE000002012902146DDF838E0119A1493DDF8B5
:101EF00040C00BE141F2045E1398C4F2000EB8F149
:101F0000000FCEF8000000F01A8498F8012098F82D
:101F100000005EF8FC4C5EF8F81C159102F001011F
:101F20000E4304F00706C2F3410451D0079341F277
:101F300010134FF0000CC4F20003CEF800C040EACA
:101F400004201A6840EA064040EA01600890CDF893
:101F500064C0D00740F08D8001206FF0FF01C3F80E
:101F600000C05850072005261290159806900020B2
:101F7000DDF84C8018900D98CDF83C8015900799AD
:101F8000DDF838E085E0159A002A00F0AE80029A6C
:101F9000002A00F0A780019A002A00F0C980013AC7
:101FA000019201220292A0E0052107221791214609
:101FB000CDF8648005218CE64FF0000EC2B2C0F36C
:101FC000074C1492020E1692C0F30722012697E0E6
:101FD0001490B44616912246DEF84C0000F00F0033
:101FE0000C2800F2CB8007214FF0020E1291002145
:101FF000189101EB80011791119002261798119CFE
:10200000139919911946CDF83C80DFE804F07FB7A9
:10201000B7B7B7B7B7B7B707C4C7CA004FF0030E13
:10202000C1E041F204524FF6F464C4F20002CFF66C
:10203000FF74C2F8008041F21012C4F20002C0F333
:10204000074C42F8106C4FF0030E166042F8046C17
:1020500042F80C6C42F8086C01261651C2B2149278
:10206000020E1692C0F307220720129000200F9054
:1020700048E008200799129000261598DDF838E00E
:1020800006900020DDF84C8018900D98CDF83C802B
:102090001590DDE910C239E00120CDF8648012907E
:1020A000139818900D98159092E600210722179129
:1020B00061460226CDF86480CDF860C0002194E42A
:1020C0000521CDF8648017916146CDF860C00521E7
:1020D0008BE40121CDF8648017916146CDF860C092
:1020E000012182E40122CDE90102C2B2C0F3074C12
:1020F0001492020E1692C0F3072201264FF0050E2D
:10210000072012901398CDF864801890169B4FEA20
:102110000C40CDE910C2CDF85CE040EA036040EA33
:102120000220149A1043159ACDE90D2E129A61E4FB
:1021300041F2045041F210114FF0000CC4F20000C3
:10214000119EC4F20001C0F800C002220868089C79
:10215000CDF808C0C00762F31F6408942DD1012098
:102160006FF0FF02C1F800C088500720324612907D
:102170000020019019461990052626E0002002262D
:10218000189007201290194613984FF0000E1990DE
:10219000CDF83C80BAE74FF0040E04E04FF0050E96
:1021A00001E04FF0010E0720CDF83C801290002096
:1021B0001890194613981990A8E7082032461290F3
:1021C00000200190194619900026139818900D9838
:1021D000CDF83C801590DDF838E0DDF840C095E79B
:1021E000082A0B464FF0010406D139E00522CDF84C
:1021F00064802046189401241B9807938DF8DC20F6
:1022000000F0FCFA284600F0E3FA0020DDF8308008
:102210004C900220499044F65400C0F2000044F271
:10222000307148903DA84A9041F2B920C0F20000B8
:1022300048AA3E9037A83D904046C0F200014B941A
:1022400001F02DF81699DDE91023FFF756BB41F296
:1022500010100026C4F2000006602046CDE91848A0
:1022600008994FF0010C0793080E022840F01781DF
:1022700046F6741042F22011C6F66F6042F24852E0
:102280004B9046F26530C7F26500C4F200014A90F7
:1022900047F26540C7F22020C4F20002499046F29E
:1022A0005010C6F66330489048A8C1F824041020A6
:1022B00010604FF6E860CFF6FF7041F800C0086884
:1022C00040B90868002804BF0868002802D10868DF
:1022D0000028F4D000240C605068102840F0A8803A
:1022E00046F26540C6F265404B9046F22050C6F279
:1022F00078304A9046F67210C7F26530499047F23E
:102300002020C7F26540489048A8C1F82404102056
:1023100010604FF6E860CFF6FF7041F800C0086823
:1023200040B90868002804BF0868002802D108687E
:102330000028F4D00C605068102879D142F26E0069
:10234000C6F674004B9047F67210C6F620104A90FD
:1023500046F66C40C7F22040499042F22E00C6F685
:102360005710489048A8C1F82404102010604FF678
:10237000E860CFF6FF7041F800C0086840B908680F
:10238000002804BF0868002802D108680028F4D09B
:102390000C60506810284BD146F66540C0F62120ED
:1023A0004B9046F26810C6F66E604A9047F278404D
:1023B000C6F22030499042F26500C6F26E50489055
:1023C00048A8C1F82404102010604FF6E860CFF64A
:1023D000FF7041F800C0086840B90868002804BFD1
:1023E0000868002802D108680028F4D00C60506802
:1023F00010281DD10D204FF0010C8DF8200148A8A8
:10240000C1F824044FF6E860C2F800C0CFF6FF70B0
:1024100041F800C0086840B90868002804BF08688F
:10242000002802D108680028F4D00C605068012808
:102430009DF87310DDF84480481C632988BF002094
:102440008DF8730000F0B0F941F210120023C4F2CD
:102450000002012413606FF0FF03D450C9B20122BF
:10246000652980F04E8100F0010041EA002041F230
:102470000451C4F20001486042F220104FF6DC61C2
:10248000C4F20000CFF6FF714250284600F0CCF9AC
:1024900043461699109ADDF83080FFF72EBA8DF872
:1024A000CF00080C8DF8CE004FF0010A1A984FF0BB
:1024B0000008069A17963292ADF8CC1000F0B4F9E5
:1024C0000F9A44F2CC60C0F20000002A1646134670
:1024D0000CBF0646222300F02981317854789DF8FC
:1024E000CE0044EA01219DF8CFC0CDF8D8C0941C9D
:1024F00027F8EA1C20224FF0080C1593DFE800F0C3
:1025000004070A0C0F111315CDF81C810FE0CDF84C
:102510001CA10CE0022009E00321479108E00420FF
:1025200004E0052002E0062000E007204790032198
:1025300044F267004FF00208C0F200008DF8BC11B1
:102540004690A7F1EA00459044F27D10C0F20000E9
:102550008DF89C11449036A8439044F20510C0F2C7
:102560000000CDE9642142900DF1F40A409044F25C
:102570008320C0F200008DF87C113E9047A83D906A
:1025800001230498419003983F900420CDE96C20EA
:1025900010206B9000206A9066905E908DF85C1120
:1025A0008DF83C110521CDE952084E90CDE94C2023
:1025B00048A83B900620CDE939A1DDF830A038903D
:1025C00044F2FC703C9144F23071C0F20000CDE95D
:1025D0005C28CDE9542337AA37905046C0F2000159
:1025E000CDF8B8C1CDF8A081CDF88881CDF8808133
:1025F000CDF86881CDF86081CDF858C1CDF8408123
:10260000CDF82881CDF8208100F049FE15980644C8
:10261000012048A942903DAA409043F66770C0F25D
:102620000000419144F62C01CDE9374037A8C0F2B3
:1026300000013F9003203D9120218DF83C010820AE
:102640004E9000204C9144F230714D90C0F2000148
:10265000CDE94A085046CDF8F880CDF8208100F049
:102660001EFE0134B442D3D10598002142F24852F3
:10267000D04640F2001AC4F20002C0F80B10012349
:102680008160C4F2000A4160016042F220110A2018
:10269000C4F200018DF8200148A8C1F824044FF6C7
:1026A000E8601360CFF6FF700B500023086840B954
:1026B0000868002804BF0868002802D108680028BC
:1026C000F4D00B6050681699DDE91023FFF714B9B8
:1026D0000020062619902046189400228BE501223E
:1026E000CDF86480204618940124062684E51599C7
:1026F0000026CDF8608006910890B1E501220626FB
:1027000075E544F6A20044F62412C0F20000C0F2BF
:102710000002202100F0D6FBFEDE44F28872C0F2F7
:1027200000020020002100F0E4FBFEDE44F2E8722B
:10273000C0F200020020002100F0DBFBFEDE44F2CC
:10274000987044F2C472C0F20000C0F200022B2163
:1027500000F0B8FBFEDE006844F634120B4644F687
:102760004411C0F20002C0F200010078002808BF46
:1027700011464FF00A02184608BF102201F00FB9A7
:102780000146C0B221283CBF0120704780B56F468A
:1027900044F6671044F68812C0F20000C0F200024E
:1027A0001E2100F08FFBFEDE0146C0B265283CBF53
:1027B0000020704780B56F4644F6A20044F6B4127C
:1027C000C0F20000C0F20002202100F07BFBFEDE20
:1027D000027840F20C514078C5F20001002A4FF017
:1027E000010200F01F0001F5407104BF40F20C51DE
:1027F000C5F2000102FA00F008607047027840F26A
:1028000008514078C5F20001002A4FF0010200F0A3
:102810001F0001F5407104BF40F20851C5F20001EC
:1028200002FA00F00860704740F2045C02784078D9
:10283000C5F2000C0CF54073002A04BF40F20453AB
:10284000C5F2000300F01F001B68012101FA00F02F
:10285000184207D04FF44271002A08BF08214CF8F3
:10286000010070474FF44171002A08BF04214CF861
:1028700001007047F0B503AF2DE9000786B081462F
:1028800000F04FFA054600F048FA00F04AFA064612
:1028900000F043FA40F20108C2F2000898F8004044
:1028A000002C04BF012088F80000F00708BF00F0EA
:1028B00036FA002C04BF012088F80000E80708BFA2
:1028C00000F02DFA94B900F02CFA054600F025FA34
:1028D00040F20000C2F200000478002C04BF012185
:1028E0000170E80708BF00F01AFA34B1022089F835
:1028F000000006B0BDE80007F0BD40F208554FF4F7
:102900008010C5F20005032628604FF0000A02205F
:10291000C5F84862C5F844A2002107F8200C0C2233
:1029200007F8220C41F20030C1F200404FF00C08D1
:1029300047F8260CA7F1260000F049F840F60C24D1
:102940000820C5F80403C5F2000420202660C5F85D
:10295000040340F20140A6600221C4F804A0002252
:1029600027F81A0C40F20130C0F20150002347F85A
:102970001E0CA7F11E00CDF800A000F02AF84020A0
:102980004FF48001C5F800034FF40000E6602860B2
:102990000120C5F8540229604FF08071C5F850023B
:1029A0002960C5F85802C5F8F884A9F8080041F272
:1029B0000060C1F60000C9F8040040F20160C1F2F5
:1029C0000070C9F8000006B0BDE80007F0BD00F0D7
:1029D00072B8F0B503AF4DF804BD45784FF6C07E30
:1029E000047843F2005C867805F01F05C7F6FF7E89
:1029F000C4F2020C45EA4415022E45EA0E04CCF856
:102A000008400ED14FF0FF34CCF80C400479022C72
:102A100013D0407900F01F0040EA441040EA0E0055
:102A20000DE0C47804F01F0444EA461444EA0E049E
:102A3000CCF80C400479022CEBD14FF0FF30CCF8ED
:102A400010000720D7F808E0CCF8000083F0010060
:102A500012B908B100220EE082F001041C4201D03C
:102A6000022208E0002A4FF0060218BF04220623C3
:102A7000002808BF1A4648B244F6C411C0F200014B
:102A800051F82000CCF85420CCF824005FFA8EF0E6
:102A9000CCF8C0005DF804BBF0BD48F2002040F265
:102AA0000111C4F2000001600421C0F810130321D9
:102AB000C0F808137047F0B503AF2DE9000B40F2E2
:102AC000085544F6E816C5F20005837890F800C072
:102AD00052B2447805F54075C0F2000690F80380C4
:102AE000002B04BF40F20855C5F2000556F822E05D
:102AF00004F01F0242F2005942EA4C124FF6C07C29
:102B0000C7F6FF7C42EA0C04C4F200090126C9F8AA
:102B1000144008F01F04827944EA4313A64043EAB4
:102B20000C032E600579C4794079022DC9F80C3068
:102B300000F01F0040EA451040EA0C0008BF4FF0CB
:102B4000FF30C9F8100004F01F00022A40EA4210CA
:102B500040EA0C0008BF4FF0FF30C9F80800082019
:102B6000C9F80000901E18BF0120AA1E18BF01223C
:102B7000104061F3410061F3820061F3C300C9F8C2
:102B80006C00C9F824E0BDE8000BF0BD006800F05F
:102B9000E7B880B56F4682B000228029019207D243
:102BA0008DF80410012201A900F06DF802B080BD7B
:102BB00002220B4662F39F13B1F5006F05D28DF828
:102BC0000530C02343EA911125E0B1F5803F11D2D1
:102BD0008DF806308B0962F39F13E02242EA11312F
:102BE0008DF805308DF80410032201A900F04BF890
:102BF00002B080BD8DF807308B0962F39F138DF80A
:102C000006300B0B890C62F39F131E2262F3DF0167
:102C100004228DF805308DF8041001A900F033F876
:102C200002B080BD0A4644F63021C0F2000100F037
:102C300036BB704780B56F468AB0009000F06DF8E3
:102C400000F050F8E0B900200191069002200390B6
:102C500044F64C20C0F2000044F6302102900120DE
:102C6000059008A8049042F68D30C0F2000002AA38
:102C700009906846089001A8C0F2000100F00FFB1F
:102C800000F049F8FEE7002A04BF00207047F0B5C5
:102C900003AF2DE9000B84B0D0F800900C46CDE9CD
:102CA000019101A905201646039200F032F8411E59
:102CB000B14210D20DF1040805460390301A414686
:102CC00004440520CDF80490029400F022F8411E3F
:102CD0002E46A942F0D3002818BF012004B0BDE859
:102CE000000BF0BD80B56F4684B0032001A90390AE
:102CF0000420029044F65C20C0F200000190012004
:102D000000F007F801460130B0FA80F0400904B045
:102D100080BDABBE704700BE704772B6704762B6EA
:102D20007047EFF31080704780B56F46FEF755FB94
:102D3000FEDEFEE770470068FEE7704770474AF620
:102D4000F76041F2994143F6F63240F28733C6F616
:102D50006330CFF20A21C4F2B022C4F2F703704705
:102D6000F0B503AF2DE9000F8DB0D1E905B844F6F9
:102D70008021D8F80C900646C0F200010C2258467B
:102D8000C84720B101200DB0BDE8000FF0BD44F6EA
:102D900068220021F068C0F200020591032101922F
:102DA00000F10C02029107AC049144F28321C0F2BD
:102DB00000010394CDE90A1201AA0C9100F1080167
:102DC000099144F27731C0F20001CDE9070158467C
:102DD000414600F064FA20B101200DB0BDE8000FBB
:102DE000F0BDD6F808A0BAF1000F0CD044F68C2143
:102DF0005846C0F200010222C84770B301200DB04E
:102E0000BDE8000FF0BDD6E90050C16828468847EC
:102E100041F28166CFF6BC5673404CF69C06CCF26C
:102E2000A216714019434EF66473C0F2B1035A40C2
:102E300047F6C133CCF61E5358401043084326D101
:102E400044F68C215846C0F200010222C847A0B1C6
:102E500001200DB0BDE8000FF0BD204622469AE8E3
:102E60007A1080E87A105846414600F018FA70B19E
:102E700001200DB0BDE8000FF0BDD5E900125846A5
:102E8000C84720B101200DB0BDE8000FF0BD002003
:102E90000DB0BDE8000FF0BD80B56F4686B0CDE93E
:102EA000030144F69020C0F200000122029044F693
:102EB0006420C0F20000ADF81420019001A8FFF7D3
:102EC000B9FEFEDE80B56F4688B0944601220192BD
:102ED00006AA009244F664220023CDE90601C0F25E
:102EE000000268466146049303930292FFF7D4FF01
:102EF000FEDE80B56F468CB0CDE900010020069063
:102F0000022044F6B4210390059008A8C0F2000105
:102F1000049044F283200291C0F200006946CDE99A
:102F2000090111460B9001A8089002A8FFF7B4FF11
:102F3000FEDEF0B503AF2DE9000F89B0144602683C
:102F400006924FF0000A42684FF0000880684FF088
:102F50000009CDE90701481C0290C4F1010001906D
:102F6000604205920390049411E0501810F8010C8F
:102F70000A38B0FA80F04009079EDDE90443DB68B7
:102F80003070069898470028DA4640F0E580B9F19D
:102F9000000F40F0DC80A04500F2BE800898A4EB52
:102FA0000803082B00EB080121D2444500F0B38050
:102FB0000398002240448B5C0A2B00F09780831812
:102FC0005E1C00F0A8808E1875780A2D39D09D1CE3
:102FD00000F0A180B5780A2D35D0033300F09B8036
:102FE000F3780A2B31D004328318E4D193E0C81C63
:102FF00020F00300401A18BF002803D1A3F10802F3
:1030000000202BE0A0F1020EA0F1030C441E0022D0
:103010008D5C0A2D20D0944210D08D186E780A2E27
:1030200015D096450AD0AE780A2E12D0944505D018
:10303000ED780A2D0FD004329042E9D1A3F10802B5
:1030400020E0013252E0023250E003324EE0013221
:1030500002E0023200E00332049C47E00E580D18F3
:103060006D6886F00A34A4F1013424EA060685F07E
:103070000A34A4F1013424EA05052E4316F0803FFA
:1030800002D108309042E9D91A1A43D0019E00EBD0
:103090000801029B01EB060C039E0B448D190321D2
:1030A0005C1814F8046C0A2E19D00CEB0106032EE0
:1030B00030D014F8036C0A2E13D06E18012E29D0CC
:1030C00014F8026C0A2E0ED08A4223D014F8016C38
:1030D0000A2E09D004316E18032EE1D11AE003390B
:1030E00002E0023900E00139049C0A1808EB0200F2
:1030F00000F10108A042BFF44EAF0899085C0A280D
:103100007FF449AF4FF00009C34644460798007862
:1031100050B913E0049CA046A24518D04FF0010915
:10312000D3460798007848B1059844F66021C0F26C
:1031300000010422C3680698984768B90898B4EB60
:103140000A0200EB0A017FF410AF002014E7002010
:1031500009B0BDE8000FF0BD012009B0BDE8000FC7
:10316000F0BDF0B503AF4DF8048D86688846D0E910
:103170000054307860B1E36844F66021C0F2000189
:1031800028460422984718B101205DF8048BF0BD51
:10319000A8F10A002269B0FA80F041464009307077
:1031A00028465DF8048BBDE8F0401047F0B503AF4A
:1031B0002DE900078EB004460668007A40B1012070
:1031C000711C2072216020460EB0BDE80007F0BDE2
:1031D000656891468846E86941071AD444F6DC21BF
:1031E00044F6E022D5E90503C0F20001C0F2000276
:1031F000002E08BF1146DB684FF0020208BF012213
:1032000098470028DBD1D9F80C2040462946904742
:10321000D6E75EB9D5E905010222CB6844F6E12183
:10322000C0F2000198470028C9D1E86944F6C422D9
:103230000121C0F20002D5F810C00C9001AB0B9236
:1032400007F83D1CA7F13D016A6903910A93D5E98E
:1032500000A195F820E0D5E90203AD69CDE905A10B
:1032600005A98DF834E0CDE9012507AA82E8091007
:103270004046D9F80C2090470028A0D1DDE90A018A
:103280000222CB6844F6DE21C0F20001984797E79E
:103290000A4644F6C421C0F2000100F000B8F0B5BF
:1032A00003AF2DE9000F8DB0032316698DF8303080
:1032B000202308930023002ECDE90A1309900693DA
:1032C00004936FD05069002800F09280D2F800A0DB
:1032D0004101D2F808B0013820F078404FF00008E2
:1032E0004FF0000901300292039101900AEB0900AE
:1032F000426842B1DDE909035AF80910DB689847D2
:10330000002840F0868006EB0800036906EB890080
:10331000D0E90221057F846908938DF830500B9421
:103320007AB1012A08D10BEBC10242F63753C0F241
:10333000000352689A4201D0002203E05BF831108A
:103340000968012256F80830CDE9042141687BB1B3
:10335000012B08D10BEBC10242F63753C0F2000338
:1033600052689A4201D0002203E05BF831100968EC
:103370000122436907910BEBC3015BF833004B68F3
:1033800004A906929847002843D1039808F1200821
:1033900009F108094045A9D1DDE901A2506882453B
:1033A0002BD33BE0D06818B394680DF11008116876
:1033B000914604EBC006013820F060400D1D00F17D
:1033C000010A2A6832B1DDE9090355F8041CDB68FB
:1033D0009847F0B9D4E9000241469047C8B908348B
:1033E0000835B442EDD14A465068824505D315E010
:1033F0004FF0000A5068824510D212685646DDE947
:103400000901CB6852F83A1002EBCA025268984799
:1034100020B101200DB0BDE8000FF0BD00200DB0BF
:10342000BDE8000FF0BDD4D4F0B503AF2DE9000F17
:1034300087B0FD681C461646814600294DD0D9F854
:103440001C802B2118F0010008BF4FF4881100EBFD
:10345000050A0691D7F808B05FEA487048D5102CE5
:1034600080F07680002C00F0A08004F0030CA2080D
:103470004FF0000000F0AA80A0EB820E731CCDE993
:10348000034BAB466FF0030505965E19043596F9BC
:10349000034096F9061096F9052014F1410F96F9AC
:1034A0000460C8BF013016F1410FC8BF013012F1EE
:1034B000410FC8BF013011F1410F0EEB0501C8BF2C
:1034C00001300431E1D12A1D5D46059EDDE9034B43
:1034D000BCF1000F40F07E8094E02D20D9F81C80D4
:1034E00005F1010A0690D7F808B05FEA4870B6D433
:1034F0000026D9F80000002800F08A80CDE904B643
:10350000D9F804B0D34510D95FEA087025D499F8EA
:103510002000ABEB0A0A0395A346DFE800F0960211
:10352000900250464FF0000A8FE020462E46D9E91F
:10353000054500902946DDE90532204600F0D4F823
:1035400048B34FF00108404607B0BDE8000FF0BD9A
:103550003046214600F09BFA54E0D9F8100021468D
:103560000390302099F820204FF001082E46D9E929
:103570000545C9F81000029289F820802046009184
:103580002946DDE9053200F0AFF880B1404607B0CA
:10359000BDE8000FF0BDEB6820460499324607B045
:1035A000BDE8000FBDE8F040184700202AE0ABEB73
:1035B0000A00DDF810A0B046461C013E6ED02A6914
:1035C0002046302190470028F7D06DE00022BCF162
:1035D000000F17D0B15611F1410FC8BF0130BCF137
:1035E000010F0FD0324492F9011011F1410FC8BF01
:1035F0000130BCF1020F05D092F9021011F1410F18
:10360000C8BF01308244D9F8000000287FF476AFAB
:103610002046A846D9E90545334600902946069A32
:10362000204600F061F800283ED1EB68204659465C
:10363000424607B0BDE8000FBDE8F04018470AF168
:1036400001014FEA5A004FEA510AD9E90458441CD3
:10365000D9F81860013C06D03269404629469047A7
:103660000028F7D020E0CDF800B04046DDE9053273
:10367000314600F039F8B8B9F3684046DDE9032176
:10368000984788B90024A24522D03269404629468D
:10369000904701340028F6D0601E1AE0EB682046FF
:1036A00051464246984730B14FF00108404607B0B6
:1036B000BDE8000FF0BD02984FF0000889F8200027
:1036C0000398C9F81000404607B0BDE8000FF0BDF0
:1036D00050464FF00008504538BF4FF001084046B3
:1036E00007B0BDE8000FF0BDF0B503AF4DF8048D95
:1036F000D7F808801C460D460646B2F5881F08D04C
:103700002B6930461146984718B101205DF8048BAB
:10371000F0BD44B1EB683046214642465DF8048B6B
:10372000BDE8F040184700205DF8048BF0BDD4D40C
:10373000F0B503AF2DE9000F81B08146D0F800C08D
:1037400080688A465CEA000102D1D9E90501EAE015
:10375000002874D0D9F80C000AEB020E4FF0000BD1
:103760005146461C09E040EA8115A11CABEB040060
:10377000B5F5881F00EB010B61D0013E0C4628D047
:1037800074455CD0214611F9010BB0F1FF3FC5B281
:10379000ECDC607805F01F01DF2D00F03F00E2D97E
:1037A000A378F02D03F03F0343EA80100DD3E378B4
:1037B00001F0070103F03F0343EA801040EA81452E
:1037C000B5F5881F3BD0211DD0E740EA0135E11C4B
:1037D000CCE7744533D094F90000B0F1FF3F04DC2E
:1037E000C1B2E02928BFF02915D2BBF1000F09D0E2
:1037F000934506D21AF90B0010F1400F02DA0021AE
:1038000001E0FCD1514600290CBF93468A46BCF129
:10381000000F18D184E0A37801F00701607803F06D
:103820003F03E67800F03F009B0143EA003006F0DA
:103830003F03184440EA8140B0F5881FD5D1934634
:10384000BCF1000F6CD0D9F80480BBF1100F32D25C
:10385000BBF1000F34D00BF0030C5FEA9B024FF07A
:1038600000002FD0A0EB820E0AF101036FF00306D7
:103870009D19043695F9034095F9061095F9052030
:1038800014F1410F95F90450C8BF013015F1410FF3
:10389000C8BF013012F1410FC8BF013011F1410F13
:1038A0000EEB0601C8BF01300431E1D1321DBCF17D
:1038B000000F0BD123E05046594600F0E8F81EE017
:1038C00000201CE00022BCF1000F18D01AF90210F1
:1038D00011F1410FC8BF0130BCF1010F0FD05244AC
:1038E00092F9011011F1410FC8BF0130BCF1020F74
:1038F00005D092F9021011F1410FC8BF0130804587
:103900000ED999F82010CDF800A0A8EB000A0020ED
:10391000DFE801F01702111750464FF0000A10E0DF
:10392000D9E905015A46CB68514601B0BDE8000F00
:10393000BDE8F04018470AF101014FEA5A004FEA8A
:10394000510AD9E90486441CD9F81850013C06D024
:103950002A693046414690470028F7D005E0EB68D9
:10396000304600995A46984720B1012001B0BDE881
:10397000000FF0BD0024A24508D02A693046414618
:10398000904701340028F6D0611E00E05146002027
:10399000514538BF012001B0BDE8000FF0BDD0E9AE
:1039A0000503DB681847F0B503AF4DF804BD84B0DC
:1039B00015460646D0E905021C46D3682A469847B4
:1039C0008DF80C00B5FA85F0BA6801A94009029695
:1039D0008DF80D000020019008462146FFF7E6FB18
:1039E00001989DF80C4030B16CB10124204604B020
:1039F0005DF804BBF0BD002C18BF0124204604B0C4
:103A00005DF804BBF0BD029D012811D19DF80D00A9
:103A100070B1287F40070BD4D5E905010122CB689E
:103A200044F6E321C0F20001012498470028DDD1CB
:103A3000D5E905010122CB6844F66421C0F20001FA
:103A400098470446204604B05DF804BBF0BD80B53D
:103A50006F468CB0CDE90001002044F6104106907D
:103A60000220C0F200010390059008A8029101A96C
:103A7000049044F28320C0F20000CDE90901114610
:103A80000B906846089002A8FFF706FAFEDEF0B534
:103A900003AF2DE9000F82B08146033020F0030A06
:103AA000AAEB090841450AD3A1EB080E5FEA9E0C78
:103AB00005D00EF00302CA455AD10020A0E089B318
:103AC00001F0030C8A084FF0000030D0A0EB820E0A
:103AD00009F101066FF003057319043593F903101A
:103AE00093F9064093F9052011F1410F93F9043041
:103AF000C8BF01300EEB050113F1410FC8BF013003
:103B000012F1410FC8BF013014F1410FC8BF01309D
:103B10000431E1D12A1DBCF1000F0CD102B0BDE887
:103B2000000FF0BD002002B0BDE8000FF0BD002284
:103B3000BCF1000FF2D019F9021011F1410FC8BF0A
:103B40000130BCF1010FE9D04A4492F9011011F1A2
:103B5000410FC8BF0130BCF1020FDFD092F9021053
:103B600011F1410FC8BF013002B0BDE8000FF0BD38
:103B70006FEA09005044032802D20020002523E008
:103B800009F1010B00206FF003060BEB060595F918
:103B9000034095F9063095F9051014F1410F95F998
:103BA0000450C8BF013015F1410FC8BF013011F1F9
:103BB000410FC8BF013013F1410FC8BF013016F1EA
:103BC000080506F10406E0D1CA4519D019F9051017
:103BD00011F1410FC8BF0130B8F1010F10D005EB52
:103BE000090191F9013013F1410FC8BF0130B8F15B
:103BF000020F05D091F9021011F1410FC8BF013039
:103C000009EB08040023C2B12EF00301214491F90D
:103C1000006016F1410FC8BF0123012A0DD091F9B0
:103C2000016016F1410FC8BF0133022A05D091F996
:103C3000021011F1410FC8BF013318446FF00F0992
:103C400012E04FF000083FFA88F23FFA98F31A4466
:103C5000ACEB0B0C0AEB8B041BF0030102EB0242F2
:103C600000EB124040F04E81BCF1000F3FF456AF24
:103C7000BCF1C00FE34628BF4FF0C00BA246BBF11A
:103C8000040FDED309EB8B010122302902EB111264
:103C900007D24FF00008544612F0030E40F0B980EE
:103CA000D1E722F003094FF0000854460092CDF806
:103CB00004A094E80E04B9F10409A6696FEA010EA4
:103CC0004FEADE1545EA91116FEA020521F0FE3157
:103CD0004FEAD51545EA9212414422F0FE320A44D9
:103CE0006FEA03014FEAD11545EA931323F0FE333F
:103CF00025691A446FEA0A034FEAD313616943EA5C
:103D00009A13D4F8388023F0FE33D4F83CE01A44F8
:103D10006FEA05034FEAD31343EA9513E56923F0ED
:103D2000FE331A446FEA01034FEAD31343EA9111B9
:103D300021F0FE31236A11446FEA06024FEAD212E3
:103D400042EA9612666A22F0FE3211446FEA0502D8
:103D50004FEAD21242EA9512A56A22F0FE321144CD
:103D60006FEA03024FEAD21242EA9312E36A22F0A8
:103D7000FE3211446FEA06024FEAD21242EA96126C
:103D8000266B22F0FE3211446FEA05024FEAD2128E
:103D900042EA9512656B22F0FE3204F140041144B0
:103DA0006FEA03024FEAD21242EA931222F0FE3285
:103DB00011446FEA06024FEAD21242EA961222F04A
:103DC000FE3211446FEA05024FEAD21242EA95121E
:103DD00022F0FE3211446FEA08024FEAD21242EAA0
:103DE000981222F0FE3211446FEA0E024FEAD2120C
:103DF00042EA9E1222F0FE3202EB01087FF459AF34
:103E0000DDF804A06FF00F09009A12F0030E3FF4E2
:103E10001AAF94E84C00BEF1010FE5686FEA0201A9
:103E20004FEAD11141EA92116FEA03024FEAD2122E
:103E300021F0FE3142EA9312414422F0FE32114455
:103E40006FEA06024FEAD21242EA961222F0FE32DE
:103E500011446FEA05024FEAD21242EA951222F0AB
:103E6000FE3202EB01083FF4EEAE04F11005BEF1A4
:103E7000020F2ECD6FEA01064FEAD61646EA9111DF
:103E80006FEA020621F0FE314FEAD61646EA921298
:103E9000414422F0FE3211446FEA03024FEAD2128B
:103EA00042EA931222F0FE3211446FEA05024FEA11
:103EB000D21242EA951222F0FE3202EB01083FF4E0
:103EC000C2AE04F120064ECECD43ED0945EA911174
:103ED000D54321F0FE31ED0945EA9212414422F02A
:103EE000FE321144DA43D20942EA931222F0FE3242
:103EF0001144F243D20942EA961222F0FE3202EB5A
:103F00000108A0E60BF0FC0301295AF823206FEA10
:103F100002064FEAD61646EA921222F0FE3215D079
:103F20000AEB830302295E686FEA06054FEAD5159E
:103F300045EA961626F0FE36324407D09968CB4300
:103F4000DB0943EA911121F0FE310A443FFA82F184
:103F50003FFA92F2114401EB014100EB114002B033
:103F6000BDE8000FF0BD80B56F46A2B002785723C0
:103F70009DF886C04FF0570E02F00F000A2838BF98
:103F800030231844A02A8DF8870038BF4FF0300E38
:103F900000237F20B3EB121F18D00EEB12108DF808
:103FA00086007E207F22802815D8C2F1810202ABD4
:103FB00018440223CDE9000244F610320846C0F24C
:103FC00000020121FFF730FA22B080BD80228DF877
:103FD00086C08028E9D944F600328021C0F2000270
:103FE000FFF735FDFEDE80B56F46A2B002783723BD
:103FF0009DF886C04FF0370E02F00F000A2838BF38
:1040000030231844A02A8DF8870038BF4FF0300EB7
:1040100000237F20B3EB121F18D00EEB12108DF887
:1040200086007E207F22802815D8C2F1810202AB53
:1040300018440223CDE9000244F610320846C0F2CB
:1040400000020121FFF7F0F922B080BD80228DF837
:1040500086C08028E9D944F600328021C0F20002EF
:10406000FFF7F5FCFEDED0B502AFA2B000880DF17F
:10407000080C81234FF0180E0CEB030402460228B3
:104080006EF35F0204F8022C19D3420804286EF381
:104090005F0204F8032C15D3820808286EF35F0230
:1040A00004F8042CA3F104020FD3C30800096EF333
:1040B0005F0304F8053C1346DED1501E08E0981E4D
:1040C0005A1E05E0D81E9A1E02E0033B10461A460F
:1040D00080280FD8C2F1810260440223CDE900029A
:1040E00044F612320846C0F200020121FFF79CF9A3
:1040F00022B0D0BD44F600328021C0F20002FFF7AA
:10410000A6FCFEDE80B56F468CB00278642A10D320
:1041100029205043030B642003FB102044F6143283
:10412000C0F20002C0B232F8100027F8020C2420BE
:1041300003E00A2A07D22620134643F03002A7F1F3
:1041400027031A5408E044F61430C0F2000030F897
:10415000120027F8020C2520C0F12702A7F127033F
:1041600018440023CDE9000244F664220846C0F258
:1041700000020121FFF758F90CB080BDF0B503AF84
:104180002DE9000F8FB004688C4644F6143142F2DA
:104190001073002CC0F20001254648BF65429D42C5
:1041A00042D341F259794EF2FF08A7F1430E0020A5
:1041B000CDF2B71941F27B4A4FF0640BC0F2F558CB
:1041C000CDE9034CA5FB09260EEB00040438454558
:1041D0004FEA563202FB135615461FFA86FC4FEA89
:1041E0009C0303FB0AF34FEA534303FB1B6631F8BE
:1041F0001330A4F8233042F21073B6B231F81660CF
:10420000A4F82560DED8DDE9034C00F1270315464C
:10421000632D0CD828460A281BD331F810009A1EAB
:10422000A7F14301885219E02723632DF2D9A8B2E0
:1042300041F27B428008023B50436422A7F14306CF
:10424000400C00FB125292B231F81220F2520A28AE
:10425000E3D25A1EA7F1430130308854C2F127003F
:10426000114444F664220023CDE90010E043C10F5D
:10427000C0F200026046FFF7D7F80FB0BDE8000FAC
:10428000F0BDF0B503AF2DE9000F8DB0046844F622
:10429000143042F2107E0D467445C0F200003DD34A
:1042A00041F259784EF2FF03A7F1430B0021CDF202
:1042B000B71841F27B494FF0640AC0F2F5530295FA
:1042C000A4FB08250BEB010C04399C424FEA553244
:1042D00002FB1E451446AEB24FEA960606FB09F6EF
:1042E0004FEA564606FB1A5530F81660ACF82360C4
:1042F000ADB230F81550ACF82550E1D8029D01F16F
:1043000027031446632C0CD821460A291BD330F806
:1043100011009A1EA7F1430188521AE02723632C4B
:10432000F2D9A1B241F27B428908023B5143642297
:10433000A7F14306490C01FB124292B230F8122059
:10434000F2520A29E3D201F130005A1EA7F14301CB
:104350008854C2F12700114444F664220023CDE9B9
:104360000010C0F2000228460121FFF75DF80DB0F1
:10437000BDE8000FF0BD0B46D0E900121846FFF76C
:10438000D7B900F000B800F09FB8042A18D3B0B530
:1043900002AFA2F1040E012303EB9E0313F003040A
:1043A00014D08C4603465CF8045B012C43F8045B94
:1043B00015D1184661467246BEF10C0F21D208E0B5
:1043C0008C46034618466146FFF7DDBFBEF10C0F71
:1043D00017D2BDE8B04018466146FFF7D4BF4B681E
:1043E000022C436003D1083A0831083004E08B689E
:1043F0000C3A83600C310C3003468C46BEF10C0F36
:10440000E7D30B68103A0360032A4B6843608B685C
:104410008360CB6801F11001C36000F11000F0D897
:104420008C460346BDE8B04018466146FFF7ABBF77
:104430000B4611461A4600F0EBB8D2B2042938BF39
:10444000FFF7F6BFD0B502AF4FF00133A1F1040E74
:104450005343012404EB9E0414F003040AD0844661
:10446000012C4CF8043B0DD160467146BEF10C0F97
:1044700019D202E0BEF10C0F15D2BDE8D040604663
:10448000FFF7D6BF022C436006D1083908308446B6
:10449000BEF10C0F07D2F0E783600C390C30844674
:1044A000BEF10C0FE9D31039C0E90033C0E9023383
:1044B00010300329F7D88446BDE8D0406046FFF7A6
:1044C000B7BF0022FFF7B9BFF0B503AF2DE9000772
:1044D000102A63D3434213F0030400EB040C16D0FC
:1044E00003460E46357803F8015B63450FD27578B5
:1044F00003F8015B63453EBFB57803F8015B634594
:1045000005D2F578043603F8015B6345EAD3A2EBE4
:10451000040E01EB04092EF003080CEB08035FEA1C
:1045200089713ED0B8F1010F54DB182129F0030244
:1045300001EAC90A4FEAC90102F1080549421268B5
:1045400001F0180655F8041C22FA0AF201FA06F4E2
:1045500022434CF8042B9C453CD22A6821FA0AF1EC
:1045600002FA06F421434CF8041B9C453FBF6968DE
:1045700022FA0AF201FA06F422433CBF4CF8042B5B
:104580009C4527D2AA6821FA0AF1103502FA06F4EE
:1045900021434CF8041B9C45D4D31BE00346F2B9DD
:1045A00033E0B8F1010F15DB4C4621684CF8041BD1
:1045B0009C450FD261684CF8041B9C453EBFA16826
:1045C0004CF8041B9C4505D2E16810344CF8041BE0
:1045D0009C45EAD309EB08010EF00302AAB11A4484
:1045E0000E7803F8016B93420FD24E7803F8016BFB
:1045F00093423EBF8E7803F8016B934205D2CE788A
:10460000043103F8016B9342EAD3BDE80007F0BD23
:10461000D0B502AF102A35D3434213F0030E00EB9E
:104620000E0C0FD0034603F8011B63453FBF03F890
:10463000011B634503F8011B634503D203F8011B0B
:104640006345F0D3A2EB0E0E2EF003020CEB020337
:10465000012A13DBCAB24FF0013462434CF8042B39
:104660009C450BD24CF8042B9C453CBF4CF8042BCA
:104670009C4503D24CF8042B9C45EFD30EF003026B
:1046800012B912E0034682B11A4403F8011B9342A7
:104690000BD203F8011B93423CBF03F8011B93426A
:1046A00003D203F8011B9342EFD3D0BDFFF76DBED9
:1046B000FFF707BF70460421084202D1EFF30880DC
:0C46C00002E0EFF30980FFE7FEE7D4D42E
:1046CC005374616E64627952657175697265645276
:1046DC007842756666657242757379547842756670
:1046EC0066657242757379526563656976654E6F5E
:1046FC007453746172746564526574726965734540
:10470C0078636564646564526164696F4572726F45
:10471C0072000000B312000004000000040000004E
:10472C0057270000B5120000000000000100000037
:10473C00491300009D110000A51200002F686F6D39
:10474C00652F6A7562656F722F727573742D706C3C
:10475C00617967726F756E642F6D64702D6C696E04
:10476C006B2D72732F6E726635322D6573622F73DB
:10477C0072632F6C69622E72730000004847000050
:10478C003D000000620200000500000063616C6CDB
:10479C00656420604F7074696F6E3A3A756E77720B
:1047AC006170282960206F6E206120604E6F6E65ED
:1047BC00602076616C756500484700003D00000084
:1047CC004101000030000000736E69666665722F4F
:1047DC007372632F6D61696E2E727300D447000083
:1047EC001300000086000000140000005B205D2018
:1047FC00F847000001000000F9470000010000002C
:10480C00F947000001000000F9470000010000001A
:10481C00F947000001000000FA4700000200000008
:10482C00CC46000000000000F94700000100000029
:10483C00D4470000130000003300000023000000E8
:10484C004572726F723A200A4C4800000700000053
:10485C00534800000100000057616974696E6720BD
:10486C00666F7220525820696E206368616E6E65A7
:10487C006C203A20644800001A0000007E480000BA
:10488C0002000000020304050100010203040909EF
:10489C00090905060708617373657274696F6E20E8
:1048AC006661696C65643A206368616E6E656C2044
:1048BC003C3D20313030696E646578206F75742012
:1048CC006F6620626F756E64733A20746865206C35
:1048DC00656E206973202F686F6D652F6A75626530
:1048EC006F722F727573742D706C617967726F753E
:1048FC006E642F6D64702D6C696E6B2D72732F6EE0
:10490C00726635322D726164696F2F7372632F7208
:10491C006164696F2E727300E24800004100000070
:10492C00E6000000070000004275666665724E6F77
:10493C0074446566696E656457726F6E6753746113
:10494C0074656E726635322D6573622F7372632FC8
:10495C0070726F746F636F6C2E72736173736572A8
:10496C0074696F6E206661696C65643A206C656E63
:10497C00677468203C3D2033320000004E49000033
:10498C001900000014000000050000006E7266356E
:10499C00322D726164696F2F7372632F6672657149
:1049AC0075656E63792E7273984900001C000000C7
:1049BC0009000000050000000000000200000004D7
:1049CC000000000800000010000000200000004063
:1049DC00000000800000000A0000001400F0040039
:1049EC0000D0090000B013000050270000F03A007E
:1049FC0000A04E0000C075000000800000009D006B
:104A0C000000E5000000EB0000903A010000D60128
:104A1C000000B00300000004000040070000000F7D
:104A2C0000000010332C0000040000000400000003
:104A3C00872C0000932B0000252C00000A0000009E
:104A4C00304A000000000000484A0000010000004D
:104A5C003A74740020202020293A0000644A000097
:104A6C0000000000654A000001000000654A0000DB
:104A7C000100000070616E69636B656420617420D5
:104A8C003A0A00003D2D000000000000010000006B
:104A9C003F2D0000206275742074686520696E6477
:104AAC006578206973200000C248000020000000D7
:104ABC00A04A0000120000003B2D00000C0000007A
:104ACC0004000000332F000063310000913200001D
:104ADC002C202C0A28280A2C6C6962726172792F9E
:104AEC00636F72652F7372632F666D742F6E756DA5
:104AFC002E727300E44A00001B00000069000000E5
:104B0C0017000000307830623030303130323033C2
:104B1C00303430353036303730383039313031315F
:104B2C003132313331343135313631373138313945
:104B3C00323032313232323332343235323632373D
:104B4C003238323933303331333233333334333523
:104B5C003336333733383339343034313432343309
:104B6C0034343435343634373438343935303531EF
:104B7C0035323533353435353536353735383539D5
:104B8C0036303631363236333634363536363637CD
:104B9C0036383639373037313732373337343735B3
:104BAC003736373737383739383038313832383399
:104BBC00383438353836383738383839393039317F
:104BCC003932393339343935393639373938393965
:104BDC0072616E676520737461727420696E6465AE
:104BEC007820206F7574206F662072616E67652067
:104BFC00666F7220736C696365206F66206C656EDE
:104C0C0067746820DC4B000012000000EE4B0000C3
:044C1C002200000072
:0400000300001101E7
:00000001FF
